:020000021000EC
:10B000000040002081B10100D5B10100D7B101009D
:10B010000000000000000000000000000000000030
:10B02000000000000000000000000000D9B1010095
:10B030000000000000000000DBB10100DDB10100F4
:10B0400065020200DFB10100770E0200DFB10100EE
:10B05000DFB101000000000079080200DFB101004B
:10B06000DFB10100DFB10100DFB10100DFB101009C
:10B07000DFB10100DFB10100DFB10100DFB101008C
:10B08000DFB1010029140200DFB10100DFB10100CE
:10B09000C9140200DFB101003D220200DFB101004E
:10B0A000DFB10100DFB1010000000000000000007E
:10B0B0000000000000000000000000000000000090
:10B0C00010B5064C2378002B07D1054B002B02D07E
:10B0D000044800E000BF0123237010BD702C002045
:10B0E000000000007C400200044B10B5002B03D090
:10B0F0000349044800E000BF10BDC0460000000046
:10B10000742C00207C400200164B002B00D1144B05
:10B110009D46402292029A1A924600218B460F4683
:10B120001348144A121A02F07DFC0F4B002B00D07A
:10B1300098470E4B002B00D09847002000210400B8
:10B140000D000D48002802D00C4808F0EBFA08F07A
:10B1500049FA2000290000F043FF08F033FAC04606
:10B160000000080000400020000000000000000077
:10B17000702C0020F43900202537020035370200FA
:10B1800003210E4802680A4302600D4802680A4320
:10B1900002600C490C4A0D4B9B1A03DD043BC85856
:10B1A000D050FBDC09490A4A0020521A02DD043A59
:10B1B0008850FCDC03F064FA00F012FF2405004024
:10B1C0005405004088400200E0250020702C00203B
:10B1D000F4390020FEE7FEE7FEE7FEE7FEE7FEE7C4
:10B1E000002070470EB4FFB51B4C09AA02CA050027
:10B1F0002000039202F056FF200002F092FB01268D
:10B200000100632801D9632100260A230D220027AB
:10B210006354631802315A706754BD4216D03A0025
:10B220002000A8470190B8420AD02A233A00012101
:10B2300023702000A8470199084801F055FC3E0002
:10B24000300004B0F0BC08BC03B01847044801F05B
:10B250004BFC2E00F4E7C046E42500204C380200E9
:10B260006238020010B50E4C1000A36E002B11D0F6
:10B27000E26E002A0ED000220121100049429847B8
:10B28000002201211000E36E494298470020A06689
:10B29000E06610BD0349FFF7A5FF0120F9E7C046AE
:10B2A000E42500207D38020070B5150000240C262E
:10B2B000094B1A0070321278A24201DC002070BDE6
:10B2C00032006243596F280089180CC90349FFF7FF
:10B2D00089FF0134ECE7C046E42500208B380200EA
:10B2E00010B510000249FFF77DFF002010BDC046D9
:10B2F0009238020070B51400054D1100280001F0CD
:10B3000033FA2800210001F02FFB032070BDC04656
:10B31000E5B1010010B5002000F0C2FF002010BD13
:10B3200010B5012000F0BCFF002010BD10B500F0EA
:10B3300040FE002010BD30B50C008BB0072840D176
:10B340001021606806AA01F072FC102802D106A83C
:10B3500000F064FF1D4DA068290001AA02F075FCF1
:10B36000012803D1019B98B200F0D6FF2900E068C4
:10B3700002AA02F06AFC012803D1029B98B200F0F5
:10B38000B7FF1349206903AA02F05FFC012803D12B
:10B39000039BD8B201F030F82900606904AA02F0DA
:10B3A00054FC012802D1049800F054FF0949A06917
:10B3B00005AA02F04AFC012803D1059B58B200F00F
:10B3C0005BFF00F0F1FD00200BB030BDD238020071
:10B3D000993802004F3F020010B501F0D5FD01235E
:10B3E0005840C0B210BD70B50C0002280AD14868A0
:10B3F00000F0B8FF002803D100F0A8FF012070BDC5
:10B400000020FCE70328F7D14D680948290001F026
:10B4100083FE002801D1A068EAE72900054801F071
:10B420007BFE0028E8D1A16800F0B4FFE2E7C04647
:10B430009E380200FE380200F0B505000C00160030
:10B440008FB0002906D1220028001C49FFF7CAFE50
:10B450000FB0F0BD581C052818D807F003F9F4F414
:10B46000030A171213780A0015492800FFF7BAFEDD
:10B47000EEE713880A00134900932800FFF7B2FE95
:10B48000E6E713680A0000930F49F6E70393102BD1
:10B4900001DD102303930027039A05AB974205DBD8
:10B4A00000215200995422000849DEE77800F25D3D
:10B4B0000749181802F082FE0137EDE7A0380200B4
:10B4C000B4380200C1380200D7380200ED3802005B
:10B4D0009938020070B5150000F09CFE040000F0E1
:10B4E0009BFE2406240CC2B203492800A218FFF7D1
:10B4F00079FE032070BDC0464F3F0200F0B587B013
:10B50000140000F087FE050000F086FE2A0003000C
:10B510001B492000FFF766FE00F00CFF050000F05D
:10B52000F5FE060000F006FF059000F0EFFE0700B4
:10B5300000F006FF059B2A001249029000932000AC
:10B5400033000197FFF74EFE01F0E2FC0E4D00289C
:10B5500000D10E4D00F024FD0B4B002800D10B4B09
:10B560002A000B492000FFF73DFE01F01FFD0949AD
:10B5700002002000FFF736FE002007B0F0BDC046F5
:10B580000339020014390200FC38020000390200BD
:10B59000333902004839020010B500F00FFD0020D9
:10B5A00010BD012370B51500984217D9486802F004
:10B5B0005DFA040005F042F9094B002800D1094B5F
:10B5C000220009492800FFF70DFE200005F036F99A
:10B5D000064902002800FFF705FE0323180070BD8E
:10B5E00052390200573902005B3902004F3F020016
:10B5F00010B501230C00022809D9486802F036FA78
:10B60000A3681B78302B04D104F08CFF00231800B2
:10B6100010BD04F07FFFF9E730B50D00140085B0D0
:10B6200001281CD96A461021686801F000FB102827
:10B630000BD00C492000FFF7D5FD20006A680A49AD
:10B64000FFF7D0FD022005B030BD684601F052FD85
:10B65000200001F085FC01235840C0B2F3E7002030
:10B66000F4E7C0466D3902007339020070B5150069
:10B67000012805D002280FD14B681B78552B0DD11E
:10B6800000F06AFE002801D1012070BD144B154A5C
:10B690009D660020DA66F8E70128F5D94E68022297
:10B6A0003100114802F0AEF9002807D101F04CF842
:10B6B0000028E9D00A4B0D4A9D66EAE702223100D4
:10B6C0000B4802F09FF90028DED10A492800FFF755
:10B6D00089FD28000849FFF785FD0220D5E7C0460F
:10B6E000E425002025C801008D390200A1C6010013
:10B6F000903902006D390200933902000A4B10B5EF
:10B7000014009A6E002A03D0DB6E0849002B05D185
:10B7100001F01AF80649002800D106492000FFF779
:10B7200061FD032010BDC046E4250020A7390200BA
:10B73000A9390200AB390200F0B58DB007000E0048
:10B74000140000F009FE0125002818D06D19AF4241
:10B7500015D97768380002F0E4F83A00039004281D
:10B7600009D100253800464905AA059502F06DFA71
:10B77000A84207DC726820004249FFF733FD280029
:10B780000DB0F0BD059B039A98B206A9069500F08E
:10B7900047FE071E12D0431EB668032B36D8089505
:10B7A0003378302B11D03000374908AA02F04DFA17
:10B7B000002856DC3300059A344923E020007268E3
:10B7C0003349FFF70FFD0025D9E77378782BEAD1CD
:10B7D000B51C280002F0A5F87B00984208D0330081
:10B7E0002000059A2B490097FFF7FCFC0225C6E7CD
:10B7F0002800294908AA02F028FA002831DC330081
:10B80000059A26492000FFF7EDFCEFE73378350075
:10B81000302B03D17378782B00D1B51C280002F0AF
:10B8200080F87B009842DAD10026102F14DD3B000F
:10B83000059A1B49E6E700231A49039807AA0793CC
:10B8400002F003FA002803DC039B059A1649D9E7A6
:10B85000079A08ABF25401367300EB180393B74212
:10B86000E9DC059B3A0008A998B200F015FE059B9B
:10B87000200099B208AA3B00FFF7DEFDA3E7C0460F
:10B88000C6390200AD3902004F3F02003B3A0200C8
:10B89000CA390200E13902001D3A0200203A0200D2
:10B8A000563A020099380200843A0200F0B50400CA
:10B8B0000E00150087B002283BD8012805D11000E2
:10B8C0001D4900F02BFE002419E00228FBD10023C3
:10B8D0004F680193380002F024F8042820D1380082
:10B8E000164901AA02F0B1F900280BDC144928001E
:10B8F000FFF778FC280072681249FFF773FC2000FC
:10B9000007B0F0BD019B02A9102298B200F088FD9B
:10B91000019A030091B2280002AAFFF78DFDD2E739
:10B9200028000749FFF75EFC28000749FFF75AFC8B
:10B93000E5E70224E3E7C04639B40100C639020056
:10B940006D3902009B3A0200BD3A0200F0B50124B5
:10B950000D0026008DB00700030004902C481A78D3
:10B96000002A0AD0072C08DC11002039C9B21D2991
:10B970001CD90D2A2BD100221A703B78002B41D004
:10B98000244B1A005E6F00237032127803920193E9
:10B99000019A039B93421EDC28001F49FFF722FCFB
:10B9A0002800049A1D49FFF71DFC2BE00200CA4045
:10B9B000310091430DD119705A780133202AFBD000
:10B9C000002ACCD0A20004A953500134C7E70A2AA8
:10B9D000D1D00133C3E731683800029601F09CFBF7
:10B9E0000C36002810D1029B04A92A009B68E0B203
:10B9F00098470B49002802D0012803D106492800A6
:10BA0000FFF7F0FB0DB0F0BD019B0133BFE7C0466F
:10BA100001100020E42500206D390200DA3A02000E
:10BA2000D73A0200F7B504000D0001F07AFF01904B
:10BA3000012829D91C4EB76E002F21D0F36E002BA0
:10BA40001ED0AF4200D11F0007222100174801F08D
:10BA5000D9FF002814D006222100154801F0D2FF9A
:10BA600000280DD008222100124801F0CBFF002849
:10BA700006D005222100104801F0C4FF002804D19F
:10BA800029002000FFF762FFF7BD00222000019986
:10BA9000B8470028F8DA0022012110004942A847DF
:10BAA0000023B366F366EFE7E4250020F03A0200D6
:10BAB000F83A0200FF3A0200083B020048DF7047F4
:10BAC00074DF704776DF704777DF70477ADF704743
:10BAD0007CDF70477FDF7047A8DF7047A9DF7047C2
:10BAE00067DF70470238012802D80022014B5A76DE
:10BAF0007047C0466427002010B505F03DFB10BD1F
:10BB000010B504000178084800F0B8FF2378002B36
:10BB100008D1064B3B211888FFF7D4FF002801D03D
:10BB200005F02AFB10BDC046DB3C02006427002064
:10BB300010B501000400094800F0A0FF032C05D057
:10BB4000042C01D0002C08D1200000E0022006F0D7
:10BB5000D7FC002801D005F00FFB10BDF23C02001D
:10BB6000F0B59F4D9F4B2A880024B1B09A4200D077
:10BB7000B2E0112305AF3B7000F0E8FB00F0E0FB02
:10BB8000060000F0DDFB01F0CCFE310082B238008F
:10BB9000FFF79EFF00F07EFBFFF796FF042292491D
:10BBA00006A802F03BF800F075FB02ABD873210049
:10BBB0003C2212A821AF01F035FF21003C223800C1
:10BBC00001F030FF210020220AA801F02BFF00F035
:10BBD0000DFC07AB1880854B6B8000F035FB102205
:10BBE0000100281D02F01AF800F0A4FB00122875CD
:10BBF00000F0A0FB687500F089FB0012A87500F04A
:10BC000085FBE87500F006FC041E68D000F002FC1D
:10BC1000040017232C76023507AC0995A38000F0A9
:10BC200053FB12AD002800D1C1E000236C622B70E1
:10BC300000F044FB21AB002800D1BBE00622EA70F3
:10BC4000053A1A8206AA5A61694B02AA3B800F2361
:10BC50009B187B601300232201249B181C7000F0AA
:10BC600005FBFA239B005843624906F0ADFD2421F1
:10BC70003C2302AA52181470C8220F931193002378
:10BC8000D2000E9010920093390028005A4B0AAA55
:10BC900003F004FD002801D005F06EFA00F00EFB61
:10BCA000002800D18BE000F00FFB434258410330E5
:10BCB00003F0BCFD002801D005F05EFA00F040FB67
:10BCC000040000F001FB4D4A002800D14C4A21003D
:10BCD0004C4800F0D3FE0124200031B0F0BD01F04B
:10BCE000DDF801F0F5F8060001F0E6F8300006F0A6
:10BCF000B5FF07F079FB444A444B07F009F90022ED
:10BD0000434B07F005F907F0B7FB061C07F06CFB87
:10BD1000404A414B0290039106F06CFE00282DD161
:10BD2000029803993B4A3C4B06F05AFE002805D086
:10BD30003A49301C06F098FE002821D13749301CC2
:10BD400006F088FE002808D002980399344A354B43
:10BD500006F050FE002800D0082400F09BFA0300F3
:10BD600008331AD0C31D0DDA0300103319D00300B5
:10BD70000C3314D0283016D005200BE01824ECE743
:10BD80001024EAE7002800D143E704280DD0031D62
:10BD9000F2D105300443E4B23BE70220FAE7032086
:10BDA000F8E70420F6E70620F4E70720F2E702238D
:10BDB0002B703DE704221882EA70586144E700F0D6
:10BDC00083FA041E00D06EE703F030FD002801D096
:10BDD00005F0D2F9FFF774FE134800F04FFE7BE741
:10BDE00064270020FFFF0000FE3D02000215000056
:10BDF000020800007102000031BB0100083D020092
:10BE00000C3D02000F3D0200CDCCCCCCCCCC0C4084
:10BE10000000503F9A999999999909400000404033
:10BE200033333333333307403C3D020030B5040035
:10BE300085B002F0B9FF200000F08CFC20881D289E
:10BE400012D80F2804D8022800D18CE005B030BDEC
:10BE500010380D28FAD806F005FC2641F96BF9F9DF
:10BE6000F9F9F9F9F95AF95252286ED017D83A2847
:10BE700073D05128EAD1A379002BE7D0A27B043AF2
:10BE8000022AE3D8022B00D001236A461370C12393
:10BE90005B0093806946A088FFF71EFE4FE055289F
:10BEA000D4D133485AE0334800F0E8FD00F006FAF8
:10BEB000314D00280DD0072006F022FB002801D0CC
:10BEC00005F05AF9FFF7FCFDA3882B8000F03EFA3D
:10BED000BCE73B212888FFF7F5FD30E0274800F05C
:10BEE000CDFD002006F00CFB002801D005F044F940
:10BEF0000122214B52421A80FFF732FEA6E720486A
:10BF000000F0BCFD2000083001F058F89EE71D4805
:10BF100000F0B4FDFFF724FE237A022B00D095E752
:10BF200000F0F6FF002800D190E700F0F9FF8DE760
:10BF3000114B8521188800231A00FFF7CBFD00283C
:10BF400000D183E705F018F980E70B4B1888002330
:10BF50001A001900FFF7C2FDF1E70B4800F08EFD53
:10BF60001321A088B7E70021A088FFF7B9FDE6E715
:10BF7000A53D0200553D020064270020653D0200FA
:10BF8000783D0200833D0200933D020010B50A0097
:10BF90000100024805F0E2F810BDC046EFBEADDE7C
:10BFA00010B500F091F910BD10B5012000F092F924
:10BFB00010BD10B5002000F08DF910BD0122014B1D
:10BFC0009A767047642700200122014B5A76704709
:10BFD00064270020014B587E7047C046642700202C
:10BFE00010B54D4888B006F01FF900234B4C0321D3
:10BFF0002200180005F006FC002801D005F0BCF86E
:10C0000004F008FA002801D104F0D6F900F02FFC62
:10C010000120404200F082FD00F0ACF8404800F002
:10C020002DFD04223F496846891801F0F7FD2100E3
:10C03000002348226846483106F0B0F8002801D0B5
:10C0400005F09AF8012101AA080006F03DF9002840
:10C0500001D005F091F801A806F054F9002801D0AC
:10C0600005F08AF8304806F0D5F8002801D005F030
:10C0700083F82E4B01A80193C8235B040293FFF7BA
:10C0800025FD002801D005F077F800F063FA0822BA
:10C09000002104A801F0C6FCA02292020292F02224
:10C0A0000023694612030392032201934B820B750E
:10C0B0001F4B01A806931F4B0A74079302F03CFE26
:10C0C000002801D005F058F81B4800F0D7FC0022EA
:10C0D00007211A4800F0A6FBFFF742FD184800F0C0
:10C0E000CDFC184CA37E002B08D0BFF34F8F164B0E
:10C0F000164ADA60BFF34F8FC046FDE700F076F8CE
:10C1000000F0F0FB637E002BEBD1FFF7D7FC00289B
:10C11000E7D005F031F8E4E7E5BA01008C2C002007
:10C12000B73D0200FE3D02002DBE010010003C00A4
:10C1300001BB0100F9BA0100CC3D0200E13D020063
:10C14000E93D02006427002000ED00E00400FA054C
:10C1500007B505480549C388828800911C30044909
:10C1600002F02CF807BDC046802700205939020094
:10C17000063E020037B5002501AA042128000195DA
:10C1800000F0F2FD019B134A134C93420FD104209F
:10C1900000F0E2FDA080062000F0DEFDE080FFF769
:10C1A000D7FFE288A1880D4800F07AFC37BD0C4A21
:10C1B00093420AD140212200280000F0D5FD210041
:10C1C00008481C3100F05AFCF0E7210006481C31F9
:10C1D000F8E7C0461915676080270020123E02006C
:10C1E000201567604D3E0200703E020010B5084CFD
:10C1F00023003D331B78002B06D0FFF7E5FE22001D
:10C200004021002000F00BFE00233D34237010BDC0
:10C2100080270020022070470120704770B5094C2C
:10C22000102226000C363100050001F000FD002828
:10C2300007D010222900300001F0F0FC01233D342A
:10C24000237070BD8027002001480C307047C04625
:10C2500080270020044B1A89824203D001221881D2
:10C260003D331A707047C04680270020014B188963
:10C270007047C04680270020054B00211A003A3243
:10C280005156814203D0107001223D331A7070471D
:10C29000802700203A20014B185670478027002045
:10C2A000054B1A0038321178814203D010700122F8
:10C2B0003D331A707047C04680270020014B383349
:10C2C0001878704780270020014B39331878704761
:10C2D00080270020054B1A0039321178814203D0A3
:10C2E000107001223D331A707047C046802700202D
:10C2F00010B5054CE388834205D0E080FFF728FFA6
:10C3000001233D34237010BD80270020014BD888C5
:10C310007047C0468027002010B5054CA388834293
:10C3200005D0A080FFF714FF01233D34237010BD1A
:10C3300080270020014B98887047C0468027002046
:10C3400001481C307047C046802700200022014B66
:10C350001A7070471C2D0020014B18787047C0469A
:10C360001C2D0020020010B5002809D00023074929
:10C370003031CC5CD05C844203D00020044B187078
:10C3800010BD0133042BF4D10120F7E780270020F2
:10C390001C2D002010B50C1E01D1002010BD0B4B30
:10C3A0001B78002B0CD00A4A002311003031E05CCE
:10C3B000C8540133042BFAD101203D321070EDE74F
:10C3C000FFF7D0FF0028E8D0EDE7C0461C2D002085
:10C3D00080270020044B5A89824203D001225881D1
:10C3E0003D331A707047C04680270020014B5889A2
:10C3F0007047C04680270020054B1A003B32117859
:10C40000814203D0107001223D331A707047C0463C
:10C4100080270020014B3B3318787047802700208D
:10C420000238FF3810B500230C0008280AD8194B31
:10C4300006F022F9050A0C101B0E251619009B8820
:10C4400023800223180010BDDB88F9E71B89F7E77A
:10C450005B89F5E73A331B785BB223700123F1E780
:10C4600038331B78F9E73933FBE7102A00DD102257
:10C470000C331900200001F0D1FB1023E2E7042A5D
:10C4800000DD042230331900200001F0C7FB042333
:10C49000D8E7C046802700200238FF38002310B5B7
:10C4A00008280AD806F0E8F8050B0F1725132E1DEB
:10C4B00021000888FFF730FF0223180010BD08880C
:10C4C000FFF716FFF8E70888FFF7C4FEF4E70888CF
:10C4D000FFF780FFF0E700200856FFF7CDFE0123AD
:10C4E000EBE70878FFF7DCFEF9E70878FFF7F2FEE4
:10C4F000F5E70948102A00DD10220C3001F08EFB10
:10C500001023DAE70448042A00DD0422303001F069
:10C5100085FB0423D1E7C04680270020F0B5060044
:10C520000D00002485B0094B6200D75A69461022DD
:10C530003800FFF775FF013403006A463900300008
:10C54000A847092CEFD1200005B0F0BDBC3E020089
:10C5500076DF704707B50648064B01A90430019302
:10C5600003F03CFB002801D004F006FE01200EBDC4
:10C57000202D002099C5010010B5054800F07EFA75
:10C580000122044B1A7000225C331A7010BDC046A1
:10C59000CE3E0200202D0020F7B5214C0E0023785E
:10C5A0000192002B01D1FFF7E7FF1E4800F066FA69
:10C5B00000250A27019BAB4200DCF7BD20005C3060
:10C5C0000378725DE1180131CA77002A25D0616EC7
:10C5D000013161660D2A06D00A2A04D0392B04D80D
:10C5E0000133037019E0002B13D0E2180132D77722
:10C5F00022000133DBB25C32200013700022E3180A
:10C60000013309492030DA77FFF70CFAA36E0133C2
:10C61000A366230000225C331A700135CAE7C046C6
:10C62000202D0020DA3E0200A1C6010010B5074807
:10C6300000F024FA06490748FFF7F4F90022064BF8
:10C640001A701A665C331A7010BDC046E63E0200CE
:10C65000A1C60100F03A0200202D002010B50D48BF
:10C6600000F00CFA0C4C0D4B208B984208D0132193
:10C67000FFF76EFF082302009A4301D004F07CFD0F
:10C6800001235B4223830023237023665C342370E1
:10C6900010BDC046FC3E0200202D0020FFFF000020
:10C6A000F7B5254B019119780090002940D01A6602
:10C6B000002837D0214800F0E1F90025019B5C1BE0
:10C6C000002C1FDD2700142C00DD1427009B1A4EC0
:10C6D000BAB25919301D03F02FFB082803D1FFF718
:10C6E000A5FF2000FEBD164B984203D1736F0133A6
:10C6F0007367F6E7002801D004F03EFDF36EED19F4
:10C70000DB19F366019BAB42D8DC019A0A4B012A84
:10C7100004DD1A6F01321A670024E2E79A6F0132D2
:10C720009A67F9E7074800F0A9F9FFF797FFF3E7E1
:10C7300001246442D5E7C046202D0020113F0200AD
:10C7400004300000263F0200014B18787047C046B5
:10C75000202D002010B501000248043003F00EFA2D
:10C7600010BDC046202D00201FB5084A0400936F5D
:10C7700008000393536F06490293136F0193D36E1E
:10C780000093936E526EA0471FBDC046202D00201F
:10C790003D3F02000020704710B50C2004F04EF819
:10C7A0000A4C002807D12071206800F091FA162069
:10C7B00003F0B8FE10BD064A0649206800F062FA90
:10C7C0002071162003F0A6FEF4E7C0469C2D002041
:10C7D000D9C7010000E0D701007810B5032806D8BA
:10C7E0000E4B05F049FF0210051501225A7110BDCC
:10C7F00019000831CA6F6C330132CA6700221A70FF
:10C8000005F084F9F3E70433DA6F0132DA67EEE713
:10C810001B6F002BEBD002489847E8E79C2D0020C7
:10C8200025C8010010B50B4B0400187900280ED064
:10C8300018681A67002C07D0DA6F0132DA670A002D
:10C84000210000F053FA10BD0A220349F9E7012044
:10C850004042F8E79C2D0020523F020010B5140022
:10C86000080000222100FFF7DDFF200010BD1FB5EA
:10C870000021154C032201A8216001F0D3F801A981
:10C88000162003F0D1FD011E17D1032202A801F0EA
:10C89000C9F8172002A903F0C7FD00280DD1042311
:10C8A0000A4AFF3303A90C30039303F0C1FE0028AA
:10C8B00003D101210C3003F01FFF00210800FFF716
:10C8C0006BFF207904B010BD9C2D002099C701009A
:10C8D000002210B5024B18681A7100F0F9F910BD6A
:10C8E0009C2D002070B51D4C0A252379002B28D1E2
:10C8F00070BD3378E2189279002A22D0616F01313D
:10C9000061670D2A06D00A2A04D0612B04D80133AE
:10C91000337016E0002B10D0E2189571220001331D
:10C92000DBB26C3213700022E3180D490D489A7186
:10C93000FFF778F8A36F0133A367230000226C335D
:10C940001A7026006C3630780630201805F0ECF8A6
:10C950000028CED000236371CAE7C0469C2D00207A
:10C9600025C80100A22D00201FB5084A04001300AD
:10C970000833DB6F08000293131DDB6F044901933A
:10C98000D36F0093936F526FA0471FBD9C2D002063
:10C990005C3F0200002373B50D001600164C020028
:10C9A00000931649200001F009FC29003200E01D27
:10C9B00001F078FB200000F0B4FF01004D2800DDFD
:10C9C0004D210A230D22635463185A7000229A7075
:10C9D0000B4B1D6895420DD12A0020000331FFF753
:10C9E00021FF002806DD2A232A00012120002370D0
:10C9F000FFF718FF73BDC046242E00207C3F0200C5
:10CA0000D027002010B50200014804F0A7FB10BD9C
:10CA100019156960014B18797047C046D02700206E
:10CA2000044B05481B79022B02D8044A9B009858F6
:10CA30007047C046D0270020883F0200983F020080
:10CA4000014B18717047C046D02700200120704765
:10CA50007047002070470FB407B5074B1B79002BB8
:10CA600005D105AA442004990192FFF793FF03B072
:10CA700008BC04B01847C046D02700200FB407B543
:10CA8000064B1B79012B05D805AA49200499019270
:10CA9000FFF780FF03B008BC04B01847D027002080
:10CAA0000FB407B5064B1B79022B05D805AA5720F2
:10CAB00004990192FFF76EFF03B008BC04B0184759
:10CAC000D02700200FB407B5064B1B79022B05D8E1
:10CAD00005AA452004990192FFF75CFF03B008BC4A
:10CAE00004B01847D02700200FB413B50A4C04AA8D
:10CAF00002CA2000019201F0D5FA200000F011FFD7
:10CB00000A2323542418033363700023A37013BC37
:10CB100008BC04B01847C046242E0020014B186002
:10CB20007047C046D02700204254130A41184B706A
:10CB3000130C120E8B70CA707047425413124118B6
:10CB40004B701314120E8B70CA7070474254401809
:10CB5000120A4270704742544018121242707047D5
:10CB600000230200180030B5002A05D0994203DDE9
:10CB7000D45CDD00AC4000190133042BF4D130BD8E
:10CB8000031E09D00020814206D01878012903D95C
:10CB90005B781B02C01880B27047031E09D00020CA
:10CBA000814206D01878012903D95B780002181851
:10CBB00080B2704770B504000D00002802D101005A
:10CBC000FFF720FF00239D4201DC002070BDE25CE6
:10CBD000002A01D10133F6E70120F7E70200002027
:10CBE00030B503002525D45C002C01D08B4200DB3E
:10CBF00030BD684301332018F5E7392802D83038B2
:10CC0000C0B270470300613B192B01D82023984321
:10CC10003738F5E770B505000078FFF7EEFF040040
:10CC20006878FFF7EAFF24012043C0B270BDF7B572
:10CC30000E000400002520270192B54202DB3500DA
:10CC40002800FEBD23781A00303A092A03D9BB43D5
:10CC5000413B052BF4D863781A00303A092A03D9EE
:10CC6000BB43413B052BEBD82000FFF7D3FF019BD3
:10CC7000023458550135E0E748DF704729DF704737
:10CC800028DF70471FB503000020834218D10D4CE8
:10CC90002078002814D10C4BA161009380230193CC
:10CCA0000A4B6946029380235B000393201DFD3BE2
:10CCB00004F0D0FE002801D004F05EFA01202070BC
:10CCC00004B010BDD8270020742F0020742E00203F
:10CCD00070B5041E06D1044D2B78002B02D004F051
:10CCE00065FF2C7070BDC046D8270020F8B5040041
:10CCF0000F001600002811D10A4B05001B78002BED
:10CD000003D1013C2000F8BD0135B542FADA785D67
:10CD100004F028FF0028F7D0741BF3E701246442D5
:10CD2000F0E7C046D82700200120704770477047C1
:10CD300070477047014B186880B27047A43F0200EB
:10CD40000120704701207047024B5B68C0180078D3
:10CD5000C0B27047A43F0200024B5B68C018008855
:10CD600080B27047A43F020037B5084B5B6801935F
:10CD70000023994201DC01203EBDC418019DA4B2EC
:10CD800064192478D4540133F3E7C046A43F020069
:10CD90001FB5184B02001C880020A2421BD81400AB
:10CDA0005B6803308443E418019302402368022A3D
:10CDB00017D0824219D0012A0FD0FF2293430B4390
:10CDC00003930122200003A9FFF758FF1128F8D090
:10CDD00043425841C0B204B010BD074A0902134093
:10CDE000EDE7064A09041340E9E71B021B0A09069E
:10CDF000E5E7C046A43F0200FF00FFFFFFFF00FF82
:10CE000070B50E000400C9B2FFF7C2FF013405007F
:10CE1000310AA0B2FFF7BCFF2840C0B270BDF7B521
:10CE2000060017000191002833D11B4B5B6800936B
:10CE3000FFF7CAF8009B9C0A2000FFF721FF11288A
:10CE4000FAD0FFF7C7F8002812D1FFF7BDF8019B11
:10CE50009C080134220039000098FFF70FFF1128C9
:10CE6000F8D0FFF7B7F8002805D101252800FEBD4E
:10CE7000FFF702FFE5E7FFF7FFFEF2E73019395D44
:10CE800080B2FFF785FF01340540019BA342F5DC2A
:10CE9000ECE700240125F8E7A43F0200A0220121CD
:10CEA000034BD2009950034A193199507047C0463C
:10CEB0000070004004050000A0210022024BC900C0
:10CEC0005A5002495A507047007000400405000053
:10CED0000A4B0B4A0B4899580140995099588020A9
:10CEE00099500122C0001A6019581142FCD15A60B1
:10CEF000A122D200985880B27047C046007000400E
:10CF000004050000FF00FFFF8ADF70478BDF7047DA
:10CF1000B923024A9B00D05C7047C046F42F002022
:10CF200030B585B06B4603221B78012593436A46D2
:10CF300000242B431370084B68460194029394819C
:10CF4000FFF7E2FFA04204D1B9232C00034A9B0063
:10CF5000D554200005B030BDBA00B000F42F002039
:10CF6000B9210200002010B5064B8900595C8142AE
:10CF700006D1B8218900585008315A50FFF7D0FF28
:10CF800010BDC046F42F002070B5B925064EAD0087
:10CF9000745D002C02D10024200070BDFFF7B6FFA5
:10CFA0000028F8D17055F7E7F42F0020B823024A83
:10CFB0009B00D0587047C046F42F0020B923F0B52D
:10CFC000494D9B00EB5C040095B0002B00D185E03F
:10CFD000437A022B00D081E0837A012B00D07DE0E0
:10CFE000C37A062B7AD1037B1A2B77D1437BFF2B95
:10CFF00074D1837B4C2B71D1C37B002B6ED1037C0E
:10D00000022B6BD1437C152B68D1384BEB5C002B8A
:10D0100006D010222900123000F009FE00285DD150
:10D02000B827BF00EB59772B58DC200007260221D8
:10D030002230A657FFF7B1FD0990200002212430CD
:10D04000FFF7ABFD290000220A90E859824239DB44
:10D050000623F7B200264343099AEB181A820A9A6C
:10D060001F755A82E31DDB7F1C2231000DA80B9334
:10D070000C9600F0D7FCA379099A079363791C49B1
:10D080000693237901970593E3780CA80493A3787A
:10D090000393637802930B9B00930A9B01F08EF835
:10D0A0000CA800F03EFCBA239B0001003200EB58B4
:10D0B0000CA89847B04211D1B8229200AB58013366
:10D0C000AB500BE00B8A099FBB4209D14B8A0A9FE8
:10D0D000BB4205D106235343ED182E7515B0F0BDA4
:10D0E00001320631B2E7C046F42F0020E50200000D
:10D0F000AC3F020070B5011E054C064D01D16055D4
:10D1000070BD1022200000F089FD01236355F7E770
:10D11000F42F0020E502000030B500230400E25C9B
:10D12000CD5C501BAA4202D10133002AF7D130BD99
:10D13000F0B506002020002384469A4201D1002049
:10D1400014E0F55C280061382F00192801D86046EA
:10D150008743CC5C20006138192801D8604684439D
:10D16000381BA74202D10133002DE6D1F0BD484360
:10D1700070B5050000F058F8041E03D02A00002105
:10D1800000F050FC200070BDF7B514001E000190A7
:10D190000091002C02D125002800FEBD3500670853
:10D1A0007D43009B01985D192900089B9847002842
:10D1B000F2D003DDAB19013C0093E71B3C00E8E72C
:10D1C0000120704770470300C06810B501689A6875
:10D1D00001291BD141684418A34217D15B688260C2
:10D1E0005B184360D0601368012B0ED14368C118EF
:10D1F0008A420AD15168CB184360516913690B61A7
:10D200005961D16893688B60D96010BD01211960A4
:10D2100004490869596118610B61196918004B616B
:10D22000E1E7C046F4270020F8B5002802D1002429
:10D230002000F8BD0F231F3098431A4B04009B6950
:10D2400098470028F3D0174B1B691A68022A01D1AE
:10D2500000241BE058681969A04220D32200203224
:10D260005E69904216D31A19001B9F680125506011
:10D270000020156018605C60D3609760FA609A6067
:10D28000116156614A61326110331C00054BDB6944
:10D290009847CDE700221A6031614E61F4E70B0038
:10D2A000D3E7C046F427002070B50400172918D929
:10D2B00001230D4D03604160AB699847002810D0F1
:10D2C000EB681A68022A01D0A3420BD29A68E36085
:10D2D000A2609C60A3682000DC60FFF774FFEB692C
:10D2E000984770BDDB68ECE7F427002070B5041E9A
:10D2F0000AD0064DAB699847002805D020001038A9
:10D30000FFF761FFEB69984770BDC046F427002026
:10D31000002370B50D4E03600B60B36904000D006F
:10D320009847002805D033691A68022A02D1F369A8
:10D33000984770BD59682268521822605A68296857
:10D340008A4200D32A601B69EEE7C046F42700201A
:10D35000002800D10348044B9861002900D10349FB
:10D36000D9617047C1D10100F4270020C5D1010067
:10D3700003000020C9B21A78002A00D170479142F8
:10D3800000D118000133F6E7F0B587B00593160019
:10D390000C000B0004900191002B30D00A200D21CD
:10D3A000604305F087F90300093B0B24012B02D9E8
:10D3B000041E00D101342300734303930023049D12
:10D3C00002930093019B009A1B1B934203D8012CEC
:10D3D000E4D1029BE0E7039B2800EF183900059B8E
:10D3E0009847002806DD32003900280001F0C0F817
:10D3F00001230293009BAD1901330093E2E707B0CC
:10D40000F0BDF8B505000C00002805D10800FFF7B5
:10D410000BFF05002800F8BD002903D1FFF766FFC8
:10D420002500F7E70F231F349C430300103B5E6881
:10D43000A64202D3B308A342ECD92000FFF7F4FEC2
:10D440003200103A0700A24200D922002900380019
:10D4500000F0E4FB2800FFF749FF3D00DAE770B574
:10D460000400C318D2B29C4201D1002070BD0E78D6
:10D47000651C280026700131B242F7D02C00F2E77B
:10D48000012210B507490378093BDBB2172B05D8F9
:10D490000C00DC40230014009C4300D010BD013080
:10D4A000F1E7C046130080004B099B00C0181F2302
:10D4B00019401E3B8B4002681343036070470023F2
:10D4C000F0B51C001700060097B00A930893069366
:10D4D000019305930493013B0B90029303940D7801
:10D4E0004B1C0993002D02D0019B002B0AD0019BFD
:10D4F000012B04D1069B002B01D1013B069306981A
:10D5000017B0F0BD062C31D8200005F0C9F807008F
:10D510002100370043008C0194019D01252D00D18D
:10D52000D8E12B00093BDBB2172B04D8AA4ADA401A
:10D530000123934304D03378AB4207D00223D7E0D2
:10D540003000FFF79DFF060001940FE00136FBE776
:10D550002A2D0DD0303DEBB2092B00D9C2E10423B6
:10D560000224049A02951343DBB204930999B6E7A7
:10D570000122049B1343DBB20493F7E72B00303BFB
:10D58000092B00D9AEE10A23029A5343303BEB1832
:10D590000293EBE7742D18D8672D03D84C2D17D1C3
:10D5A000022327E0280068380C2811D805F06EF80F
:10D5B00020001000F8FF10002400100010001000E0
:10D5C0001000F8FF100010009D017A2D00D18CE1B1
:10D5D000039B022B13DD02230393782D06D8572DCE
:10D5E00013D8252D00D118E1502D68D00024A5E7CF
:10D5F000039B013B0393B9E7039B0133FAE7039BCA
:10D600000233EADA02235B42E6E728005838202892
:10D61000ECD805F03BF83E00EBFFEBFFF100EBFF31
:10D62000EBFFEBFFEBFFEBFFEBFFEBFF76002100E7
:10D63000EBFFEBFFEBFFEBFF5800EBFFEBFFEBFF2C
:10D64000EBFF40003C005400EBFFEBFFA600EBFFBC
:10D650002100EBFFEBFF3E000A253000FFF710FF33
:10D6600004780600002C00D11CE12A00029B0DA9C1
:10D6700000F006FB0D9A0300B242B7D0012016005D
:10D68000049A02420AD1069A1218069206E0082568
:10D69000E3E71025E1E70B9BF31AD9170122049C5D
:10D6A0000498144010423DD1039A022A0DDC501C0C
:10D6B0003A1D032811D804F0DFFF171D1D20474B2A
:10D6C00000250393C9E70025C7E7444A039991421F
:10D6D00000D039E702CF0B6036E7396801940B7050
:10D6E000022317005B4285E739680B80170000238F
:10D6F00001933BE739680B60F8E7386803604160E5
:10D70000F4E7049B5B0701D4012302930122049BED
:10D71000029904981340013910420CD00291029AE8
:10D72000013201D1002421E7029A3478013A002C19
:10D73000DED00292F3E708CF0291029A05930132FC
:10D7400005D1069B0133069300230193EAE7029A71
:10D750003478511E002C00D1A4E01C700136013336
:10D76000EAE70123049A029904981A400139184201
:10D7700019D0140002911849029B013338D0347833
:10D78000002C00D1B3E023000298093BDBB2013842
:10D79000172B05D80D00DD402B0001259D43C1D07E
:10D7A00001360290E8E7012408CF02910593029A1E
:10D7B000013215D03478002C12D0202C10D00A2C35
:10D7C0000ED0092C0CD0029A511E0D2C08D01C70C2
:10D7D000013601330291EAE713008000FFFFFF7F6B
:10D7E000059A9A4204D000211970069B01330693D2
:10D7F0006342634100247BE7002301220593049BDD
:10D80000134201D108CF0593202200210EA800F079
:10D8100009F9002304240893A8E63378252B00D0C7
:10D82000E4E601367EE75E2D63D029000EA8FFF7FF
:10D830003BFE05249AE65D2D0FD02D2D5CD02900EE
:10D840000EA8FFF731FE91E60A9B07935D2D32D1BA
:10D8500080230F9A9B0113430F9301220D96029B85
:10D86000002B10D03278002A0DD0530916A99B0046
:10D87000CB181F21203B1B681140CB4001210B40DE
:10D88000089999421BD10D9BB34220D0059B002BD8
:10D890001DD0002305990B70069B01330693002AC7
:10D8A00000D063E6012323E707990EA8FFF7FCFDEC
:10D8B000079B01330793079B9D42F5DCB9E7059B66
:10D8C000002B02D01A70013305930136C7E70223FB
:10D8D0000193E4E701235B42019404940293012441
:10D8E000002387E60324099140E6012382E60192A2
:10D8F0003CE60123089339E606240A9536E6C0463D
:10D9000010B5034B0A000100186800F0CCFD10BDF3
:10D91000743F02000023CA5CC2540133002AFAD1CA
:10D92000704703001A78002A01D1181A7047013392
:10D93000F8E710B50378002B13D00B000278002A0B
:10D940000DD11B785A1E93415B42184010BD944282
:10D95000FCD001331C78002CF9D10130EEE70B002C
:10D96000F8E71800F2E70300002010B50C5C002C6B
:10D9700003D1002A00D01C7010BD01309042F5D2B6
:10D980001C700133F2E770B504000500002A06D0D0
:10D990000B78013A01302B700131002BF5D10021B9
:10D9A00000F040F8200070BDF8B50D000600FFF74C
:10D9B000B8FF6F1CA84200D2471C3800FFF734FCA8
:10D9C000041E05D03A00310000F028F90023635509
:10D9D0002000F8BDF0B50500002420272A5D1300C3
:10D9E000613B1600192B00D8BE430B5D180061384F
:10D9F000192800D8BB43F01A9E4202D10134002AF4
:10DA0000ECD1F0BD70B5002304009A4201D1002092
:10DA100007E0E55CCE5CA81BB54202D10133002DC6
:10DA2000F3D170BD03008218934200D17047197082
:10DA30000133F9E7030041188B4201D1181A7047EE
:10DA40001A78002AFAD00133F6E7030030B51C78C3
:10DA5000002C07D00A0002E0A54205D0013215785B
:10DA6000002DF9D1181A30BD0133F0E7012310B5AC
:10DA70000A2200215B4200F003F910BD70B50500D9
:10DA8000FFF74FFF461C3000FFF7CEFB041E03D00C
:10DA90003200290000F0C2F8200070BD0EB477B546
:10DAA000002107AB40CB0500320008000093019332
:10DAB00000F018FD441C2000FFF7B6FB286000288A
:10DAC00008D032002100009B00F00CFD7EBC08BC99
:10DAD00003B0184701204042F8E7012310B55B422C
:10DAE00000F0CEF810BDC9B203788B4200D1704768
:10DAF000002B01D00130F7E71800F8E770B50024DB
:10DB0000031994420BD0055D002D06D12000091B9E
:10DB10000C5C002C08D11C7005E00134F0E7080013
:10DB2000FFF7FFFE001970BD01309042F0D21C706B
:10DB30000133EDE7F0B5060087B000208B4220D816
:10DB4000181E1ED0081E1CD01778012B2DD050781F
:10DB50000090B84217D002200290013800250190B1
:10DB60000232981ECB1A03900492059374196378BD
:10DB7000009A93420BD0019BED18059BAB42F5D266
:10DB8000002007B0F0BD012002900018E6E7A91CB4
:10DB9000039A0498711800F04AF8002803D12378FA
:10DBA0002000BB42EDD0029BE6E7300071180378FD
:10DBB000BB42E6D001308142F9D1E1E770B5040003
:10DBC0000E001500FFF7ADFE00232018C2189D427D
:10DBD00002D10023137004E0F25CC2540133002A26
:10DBE000F4D1200070BD70B505680400002D08D088
:10DBF0002800FFF79EFE002802D0002303700130AA
:10DC00002060280070BD70B504000D00FFF789FE8C
:10DC100029002018FFF77EFE200070BD002310B5FC
:10DC20009A4200D110BDCC5CC4540133F8E770B502
:10DC300000230400934201D1002005E0E65CCD5CA6
:10DC40000133701BAE42F5D070BD0EB403B503AA0C
:10DC500002CA0192FFF733FC02B008BC03B01847B8
:10DC600010B5531EC3189A1AC9B21800934201D1B5
:10DC7000002003E00478013B8C42F6D110BD000087
:10DC8000F0B504001500012087B001914B49002B2D
:10DC900000D187E027783A00093AD2B2172A06D98C
:10DCA0003A00FD212B3A0A420AD000270DE00E006F
:10DCB000D640320006009643F7D10134013BE6E737
:10DCC0002D3F7A4257410134013B002D1FD1012BDA
:10DCD00012D922780A35302A07D1202162788A4366
:10DCE000582A10D1023B02340635E3180493EB178F
:10DCF00000200021059329E000200021002B30D0D6
:10DD00002278302A39D10825013B0134EDE7102D66
:10DD1000EBD1012B01D81025E7E72278302AE4D196
:10DD2000202162788A43582ADFD1023B0234DCE7A3
:10DD300002000B002800059904F0AAFEF3170296D2
:10DD40000393029A039B801859410134049B9C421F
:10DD500007D026783300303B092B11D81E00B5427E
:10DD6000E6DC019B002B1AD1002F04D003000C002D
:10DD700000215842A14107B0F0BD01230A25B4E7B4
:10DD80003300413B192B01D8373EE8E73300613BB4
:10DD9000192BE6D8573EE2E72F0000200021019B17
:10DDA0001C60E1E7002D05D1019B002BF4D1002080
:10DDB0000021E0E71F00102D97D1ACE71300800091
:10DDC000030030B51C78002C09D1181A30BDA542CB
:10DDD000FBD001321578002DF9D10133F2E70A00AA
:10DDE000F8E7012310B55B42FFF74AFF10BD70B59D
:10DDF0000D000400FFF795FD06002800FFF791FDD8
:10DE00002A00030031002000FFF794FE70BD70B5BA
:10DE10000D001400002800D0106029002000FFF73A
:10DE2000E2FE002802D00378002BF6D070BD10B5BA
:10DE30000A000021FFF7F6FD10BD8218C9B290421A
:10DE400001D10020704703788B42FBD00130F6E708
:10DE500070B50025418804002B000A048188280041
:10DE6000801859412288801859410523064A04F038
:10DE70000FFE0B22002312184B411904100C08430B
:10DE800022806080A38070BD6DE6ECDE10B5024894
:10DE9000FFF7DEFF400810BDB839002010B502487A
:10DEA000FFF7D6FF10BDC046B839002010B5FFF708
:10DEB000E7FE10BD10B5FFF7CBFF400810BD000016
:10DEC000C317C01858407047C317C0185840704750
:10DED000CA175040514030B5130004000D00A41A79
:10DEE0009D412900200030BD10B5FFF7CFFF10BDC8
:10DEF00010B500F017F910BD10B5FFF7C7FF10BD42
:10DF000010B500F00FF910BD70B50C0019680600CF
:10DF10004D68281E06D0310018006243A847210032
:10DF200004F0C8FB70BD70B50C00196806000D68E0
:10DF3000281E06D0310018006243A847210004F0D3
:10DF4000B9FB70BD70B50D000400FFF7EAFC2B00B3
:10DF5000020001212000FFF7E6FF70BD70B504004C
:10DF6000FFF7DFFC084B02001D6801212B00200099
:10DF7000FFF7D9FF012204002B0011000348FFF72F
:10DF8000D2FF201870BDC046743F02005A3F020005
:10DF900007B56A46D071012268460B0007301100B0
:10DFA000FFF7C1FF012802D16B46D8790EBD0120D1
:10DFB0004042FBE713B56A46D41D0122030011005D
:10DFC0002000FFF7A1FF012801D1207816BD012014
:10DFD0004042FBE7030019220020413B9A424041A6
:10DFE0007047030019220020613B9A42404170476C
:10DFF00020239843030019220020413B9A424041CC
:10E000007047030009220020303B9A42404170478C
:10E0100010B50400FFF7ECFF03000120002B04D132
:10E020000922303CA2425B41180010BD7F23984377
:10E0300043425841704703000120092B02D0203B86
:10E0400058425841704703001F220021C00F9A42D6
:10E05000484170470300093B0020172B03D80248B2
:10E06000D840012318407047130080000200303A66
:10E0700003000120092A06D9202200209343413BB6
:10E080001B3A9A42404170470300613B192B01D86B
:10E090002023984370470300413B192B01D82023CC
:10E0A0001843704710B513000A00024900F01AFA2D
:10E0B00010BDC046FFFFFF7FF0B504000D00170044
:10E0C000060085B00196012D02DC002D06D017E078
:10E0D0003B685B68002B04D100243470200005B03D
:10E0E000F0BD02A901223800073198470128F3D179
:10E0F00002ABDB79019A01361370013D0A2BE1D1A5
:10E1000000233370EAE7012310B55B42FFF7B8FD47
:10E1100010BD012310B50A2200215B42FFF7B0FDBC
:10E1200010BD0000034B044A5880000C1A809880F0
:10E130007047C046B83900200E330000012310B5E7
:10E140005B42FFF79DFD10BD10B581420AD8013A30
:10E1500007D38B5C8354FAE7CC5CC45401339342FD
:10E16000FAD110BD0023FAE7F7B5130001920E00B3
:10E1700014000A0000210700080000F0B3F9451C54
:10E180002800FFF751F83860002805D0230032003E
:10E19000290000F0A7F9FEBD01204042FBE7012362
:10E1A00010B55B42FFF76CFD10BD012310B50A22CC
:10E1B00000215B42FFF764FD10BD00000EB403B503
:10E1C00003AB04CB0349019300F08CF902B008BC07
:10E1D00003B01847FFFFFF7FF0B505000E000124D4
:10E1E000CB6885B00193CF792100280004F062FA52
:10E1F000B84206D20027002C05D1019B1C7005B047
:10E20000F0BD7C43F0E72800210004F0D9FAF3794F
:10E210000D00029019002000039304F04BFA002F28
:10E2200007D1029B002B04DC039BA34213D80400FC
:10E23000E1E7029A3023092A04DD327A0733002A03
:10E2400000D12033029A01379B18019A13701300F2
:10E2500001330193EBE73023F4E707B56A460B007F
:10E26000D3710368D11D1B68002B01D100200EBDA6
:10E27000012298470128FAD0F8E7F7B507000E0009
:10E280000C68CB681B1962429A5C002A3FD17379F3
:10E290005A1E9341E41AB379002B03D0F379102B63
:10E2A00039D1023C00253379AB4208D10194019B5E
:10E2B000002B35DCE343DB17621E1C40141B717915
:10E2C000002903D03800FFF7C8FF2D18B379002BC1
:10E2D00010D0F379102B2CD130213800FFF7BDFF7F
:10E2E000337A58214519002B00D120313800FFF72F
:10E2F000B4FF2D183379002B01D0002C1DDCF468FD
:10E300000134631E197800291ED12800FEBD002C9F
:10E31000BDDD013CB7E7083B5A425341E41AC1E76F
:10E3200020213800FFF799FF019B2D18013B019335
:10E33000BDE7082BDED13021D8E730213800FFF7C8
:10E340008CFF013C2D18D8E73800FFF786FF2D1809
:10E35000D6E7F0B50600140000258BB003AB099397
:10E360004B1C09780093002902D128000BB0F0BDA6
:10E37000252903D03000FFF770FF65E000239C469D
:10E38000180002AA009906939382937501934A1C80
:10E3900009780092002903D0232911D0302913D005
:10E3A0006746002F01D006AF3871002B02D00198CC
:10E3B00006AB98710B00303B092B20D800200CE0F5
:10E3C000012301931100E2E701218C460800F9E7DF
:10E3D0000A2148431178C01801320B00303BDFB2EC
:10E3E0000092092FF4D9313B052B03D80A330A2BAD
:10E3F000EED003E00B00413B052BF7D906906C29CA
:10E4000002D1531C1178009369290DD01ED85829C8
:10E4100030D005D80029A8D02529ABD000999FE796
:10E42000632933D06429F9D10A2201CC06ABDA7111
:10E43000002802DA233240425A7106A9FFF7CCFEC7
:10E44000300006A9FFF719FF2D18E7E708006F381D
:10E45000C3B2092BE2D80928E0D804F003F913DF8E
:10E46000DFDF1ADF05DFDF0B0A2202ABDA7501CC32
:10E4700006A9E3E7102302AA5839D3754B42594144
:10E480001176F4E7082302AAD375F0E702CCC9B2EB
:10E4900070E708CC300006A90993FFF7EEFE03AB46
:10E4A0002D180993BAE710B5FFF753FF10BD0EB44E
:10E4B00003B503AA02CA0192FFF74BFF02B008BCE2
:10E4C00003B018470FB407B5054B04AA02CA186871
:10E4D0000192FFF73EFF03B008BC04B01847C046E6
:10E4E000743F020030B51D00140087B04A1E0100C1
:10E4F00002A800F02BF82A002100FFF72AFF039B57
:10E5000001930023019A1370049807B030BD0CB436
:10E5100007B504AB04CB0193FFF7E4FF03B008BCDD
:10E5200002B018470300002030B5013A00D230BDD8
:10E530009C68DD6801349C60AC42F6D85C680130B0
:10E54000651C5D600D7801312570EEE7034B0360BB
:10E55000002341608360C2607047C046DC3F020018
:10E5600010B5024AFFF753FC10BDC046E032002050
:10E57000002330B59A4200D130BDC45CCD5CC55497
:10E58000CC540133F6E7012310B55B42FFF778FB6B
:10E5900010BD0000A022044BD205D358034A125CE0
:10E5A0000120D3409843704704050000E43F020077
:10E5B000044BA0211A5C01239340034AC9058B50E8
:10E5C0007047C046E43F02000C050000044BA02148
:10E5D0001A5C01239340A122C905D2008B507047D9
:10E5E000E43F020010B50020FFF7F0FF0120FFF725
:10E5F000EDFF10BD10B50020FFF7DAFF0120FFF797
:10E60000D7FF10BDA022084BD205D158074B10B53B
:10E61000185C012383401C00A1208C430B4004495B
:10E62000C0001450535010BD04050000E43F020028
:10E630000C050000A023EB21032210B5DB05C90067
:10E640005A5002495A50FFF7CDFF10BD5C07000039
:10E65000014B185C7047C046E43F020003000020F5
:10E66000162B03D00130172B00D002387047C0465C
:10E67000014B024A1A607047142800200024F4005D
:10E680002B4A70B51368DBB2012B03D129490B6803
:10E690001B0700D070BD284BF0201C68E026250029
:10E6A000054034423DD1254C246804420DD1244814
:10E6B000244C046080242448240204601068C0B202
:10E6C0000128E7D108680007E4D1F0241868204049
:10E6D000402810D11948006820420CD18024C12064
:10E6E0000125E405C00025501268D2B2AA42D1D15A
:10E6F0000A681207CED11A68F0231A40A02A13D153
:10E700000E4A12681A42C5D1104B1A68012A04D069
:10E710000F4A1A601A68012AFCD1C0220D4B1A60F8
:10E72000B8E7302DBFD0D0E7D02AB3D1E8E7C04654
:10E73000E00F00F0E40F00F0E80F00F0EC0F00F045
:10E7400004050040DFFF07C0186C004000EC0640E5
:10E750007593000014EC064071DF704772DF70475C
:10E7600079DF70477DDF704765DF7047F0B50025C2
:10E7700006002F0089B001930EAB10CB04911B88CB
:10E7800003920593238802933388BB420EDC00205A
:10E79000854209D02388029A013B9B1A9BB2FF2B2A
:10E7A0003ED8019A0299535409B0F0BD7368B9007C
:10E7B0005918042207A8FFF731FA06AB0022D91C2A
:10E7C00007A8FFF7D1FF0028EED106ABDB78039A4C
:10E7D000934223D169426941238849009A1852180B
:10E7E00005998A421CDC002D08D1019A0499013355
:10E7F0009BB22380D154238801332380019B22883C
:10E8000007A89A1806ABDD1C2900FFF7ADFF00280A
:10E81000CAD12B78012522889B1823800137B3E7C2
:10E820000C20C1E7F0B51D0085B00AAB40CB0392C8
:10E830001F8802222B00019700960400FFF796FF25
:10E84000002807D12B001022200003990197009681
:10E85000FFF78CFF05B0F0BDF0B5138887B00293C9
:10E860000023138003002D331B7807000D001400D4
:10E87000002B2BD0029B082B01D80C201CE104AEEE
:10E880003000FFF769FF002800D015E108220921B8
:10E890002388EA542388133201339BB22380EA543D
:10E8A000208802AB013080B22080153AC9182818A0
:10E8B000FFF7B4F92388327806339BB22380002A0D
:10E8C00000D0EAE0EA54238801332380BB78002B90
:10E8D00022D02388029A04330C20934200D9EBE023
:10E8E00004AE3000FFF73CFF002800D0E4E0032234
:10E8F0002388EA542388163201339BB22380EA54DA
:10E900002388328801339BB22380EB181A70120AD5
:10E910005A70238802332380FA78002A14D023887F
:10E920000298D91C8142A8D80221E95423880139D0
:10E9300001339BB22380E95423885B189BB2238068
:10E94000EA5423885B1823807A68002A16D023882B
:10E950000298D91C814290D802211278E954238868
:10E96000083101339BB22380E954238852B201332A
:10E970009BB22380EA542388013323803B89002BF8
:10E9800000D08CE03B8A002B0CD03800029B072281
:10E99000019303212B0000941030FFF743FF002860
:10E9A00000D089E03B8B002B0CD03800029B152255
:10E9B000019314212B0000941830FFF733FF002837
:10E9C00000D079E03B6A002B00D077E07E6A002E11
:10E9D0002ED0B3882188981C8A1C12189446029A5B
:10E9E000944500D949E7FE2800D946E7FF220333C2
:10E9F0006B54238801339BB22380EA54238801336C
:10EA00009BB223803288EB181A70120A5A70208841
:10EA1000023080B22080B288002A09D0B168002973
:10EA200055D02818FFF7FAF82388B2889B1823805E
:10EA30003B002C331B78002B00D07FE03B78181E66
:10EA40003AD03A880720012A36D022880299901CB1
:10EA5000884200D911E7012B06D17B780299023355
:10EA60009B18994200D208E7029E02AB023EB61AFA
:10EA7000B6B2281804A91E81FFF774FE00281BD126
:10EA80003B78022B00D096E002AB1B890922B342EF
:10EA900000D89AE002AB1E8196E0012212E738000E
:10EAA000029B0622019302212B0000940830FFF7FD
:10EAB000B9FE002800D165E707B0F0BD26880299AD
:10EAC000B21D8A4200D9D8E61988052901D8072045
:10EAD000F2E746480A1892B20392454A9446039ACE
:10EAE0006245F4D95A88052AF1D9101880B26045D8
:10EAF000EDD94048814203D0824201D09142E6D80C
:10EB000005221221AA552288013292B22280A954EC
:10EB10002288013292B222801988AA181170090A3B
:10EB200051702288023292B222805988AA1811703C
:10EB3000090A517023880233238047E7BB6A002B00
:10EB4000C5D0002303933B002C331B78039A9342D8
:10EB500000D873E70C26039B5E43BB6A9E19B388FB
:10EB60009A1CFE2A00D988E622880333AB54162269
:10EB7000238801339BB22380EA54238801339BB25C
:10EB800023803288EB181A70120A5A7020880230DB
:10EB900080B22080B288002A09D0B168002996D0BE
:10EBA0002818FFF73BF82388B2889B182380039B23
:10EBB0000133DBB2C6E7012B00D06BE77B789E42C6
:10EBC00000D267E702AA1381082202AB1989FE2945
:10EBD00000D952E623880131E954238801339BB2DE
:10EBE0002380EA5423885918218065E77FF3FFFFCB
:10EBF0007DF30000FFFF0000F0B593B06A461F23CD
:10EC000001AE971D04000D0033803B80002820D00A
:10EC1000C3785B0702D4072013B0F0BD320002A90D
:10EC2000FFF71AFE02AC0028F6D1002D13D0EB78C6
:10EC3000002BF0D128003A000AA9FFF70DFE0AAD1B
:10EC40000028E9D12A0020003B783178FFF786FDC3
:10EC5000E2E73080E9E73D80F4E7C04675DF7047C2
:10EC600076DF70477ADF70477BDF704713B5164C4D
:10EC7000164B2088984210D0A378227C0133DBB257
:10EC8000A3709A420AD321002031FFF7E7FF002842
:10EC900003D0E369002B00D0984713BD0023A37075
:10ECA000237D002B08D03B21FFF7DAFF002803D09B
:10ECB000E369002B00D09847A369002BEDD0002218
:10ECC00001A80270E8E7C046E4320020FFFF000020
:10ECD00013B5184C638D228C9A4209D8628C9A42E3
:10ECE00006D3A369002B21D100233034237013BD38
:10ECF000230030331B78002B06D0A369002BF3D000
:10ED0000002201A802700DE0A378002B0CD1A168AD
:10ED100020000022343002F0D1FD0028E4D0E36965
:10ED2000002BE1D09847DFE7E168F1E7012201A875
:10ED3000E8E7C046E4320020020070B5134C231D02
:10ED400062CA62C362CA62C3126825001A602300E5
:10ED50000022016830331A702035914212D0280009
:10ED60000832FEF75BFF2800FFF77CFF002808D180
:10ED7000012300215B42064A06482380A17002F06D
:10ED800085FD70BD2800FFF76FFFEFE7E43200203C
:10ED90006DEC0100E83F020010B50248343002F08B
:10EDA000D7FD10BDE43200200388010010B5122BFE
:10EDB00038D004D8102B13D0112B22D010BD502BDB
:10EDC000FCD11C4CC088628A9042F7D10B8A022B7E
:10EDD000F4D11231080000F077F800280ED116E0C7
:10EDE000144C838820000822283018312380FEF735
:10EDF00015FF0023A370638A002BDFD1FFF768FFA4
:10EE0000DCE701230B4C5B4223800023A37020002E
:10EE1000343002F09DFD0028D0D0E369002BCDD026
:10EE20009847CBE70348082208312830FEF7F6FE62
:10EE3000E4E7C046E432002073B5154C010025001C
:10EE4000203508222800FEF7E9FE2800FFF70AFF18
:10EE5000051E09D1638D228C9A4207D8628C9A4292
:10EE600004D3A369002B0DD1280076BD2300210017
:10EE700001263033208820311E70FFF7EFFEA67088
:10EE80000500F1E7012201A802709847ECE7C046AF
:10EE9000E4320020A2DF7047A3DF7047002301386F
:10EEA00000B50B70042806D803F0E6FB0306080A39
:10EEB0000C0011230B7000BD2123FBE73123F9E780
:10EEC0001223F7E72223F5E7012300781840704763
:10EED00000788007C00F70470B7803704B78437041
:10EEE0000220704770B5040008000D00FEF719FD00
:10EEF0006560208070BDF0B593B0019200900C0069
:10EF0000897805AB0A1C002900D101229A70228859
:10EF100000211A8002A80322FEF784FD607C02A96A
:10EF2000FFF7BCFF02ABA07C591CFFF7B7FFE37BE8
:10EF3000227BDB001343227C02A912011343192216
:10EF4000897813409143227D0627501E82410B434E
:10EF500001325200BB4313430BAD02AA9370002150
:10EF60001C222800FEF75EFD3023627B1A4213D07C
:10EF700004AE032200213000FEF754FD092102AB4C
:10EF8000C918E07CFFF78AFF1123B2783370BA43C7
:10EF90000F3B1343B3706E61637B0C222B70A37B1A
:10EFA000002108A86B70FEF73DFD05AB06AE069389
:10EFB00002AB7360A388B381A368002B02D0E28800
:10EFC00033613281A769002F2ED003AE03220021C6
:10EFD0003000FEF727FD3B8831002B817B886B8159
:10EFE0007B682E616B60387BFFF758FFA369587B05
:10EFF00002AB591DFFF752FF1920A269937A117ACB
:10F00000DB000B43D17A09010B43B1780340814304
:10F010000B43B370937B06215A1E9341B2780133A0
:10F020005B008A431343B370E369002B00D00E9357
:10F03000019B009806AA0BA9FFF72CFF13B0F0BDA7
:10F04000F0B50C0089B000210600170004A81022BA
:10F05000FEF7E8FCA17802AB0A1C002900D10122CE
:10F060009A70228801AD1A802900A0790393FFF7D6
:10F0700015FF6B46E079591DFFF710FFE3786279C1
:10F08000DB0013432279A97812011343192291431B
:10F090001340227A0B43501E8241062101328B43DA
:10F0A000520003A91343AB704D6063893A000B8192
:10F0B000A38930004B81E3898B8123690B61FFF7C2
:10F0C000EBFE09B0F0BD000090DF704792DF7047A3
:10F0D00093DF70470A4900220B0070B510CB9442B1
:10F0E00001D1002008E09E788578AE4205D11E88C7
:10F0F0000588AE4201D1C86970BD01320433EEE724
:10F100003833002030B50B4B1500C25CF73BFF3B9A
:10F1100053439BB0C0180C00FFF7DCFF031E07D061
:10F120006A4669465580012268460A7001949847EC
:10F130001BB030BD5A020000F0B51E4B85B00291E5
:10F140000392C45CF73BFF3B5C4304192000FFF7CC
:10F15000C1FF009000282AD0174D2F6A052F26D80E
:10F160006C237B430193019A144B21009E18039B4F
:10F1700064227380301DFEF751FD0299019A4B42C3
:10F1800059410E4B49009954009B2A68B3667B1C79
:10F190002B6293420BD10026084CA36E20009847A7
:10F1A0002B6801366C349E42F7D300232B6205B0E6
:10F1B000F0BDC0465A020000383300206033002002
:10F1C000030013B5104A0800995C104A9A5C002AA3
:10F1D00015D0013AD4B21222624364244C4312196E
:10F1E0009A18528A013292B26C46A280642251432C
:10F1F0005B181B8901A9E380FFF768FF16BD642235
:10F200004A439A18D288EFE75A02000059020000D8
:10F210009722F8B59200835C0E0001331749DBB2E8
:10F2200083540A6804000027934224D26425144BB7
:10F23000C7541448225C0132D3B25D4323549B006F
:10F240006519C918042204312800FEF7E7FC0121E2
:10F250002A0030002F71FFF737FF0100B84209D0B4
:10F26000094B32002000E754FFF74CFF0322074B05
:10F270001A705E80F8BD044BC754F7E7383300209E
:10F28000590200005A0200005B02000060330020B7
:10F29000F0B589B001916421294B0392C35C294FD9
:10F2A00059431223C25D4418534325795B180A332E
:10F2B000561CC318AE4216D02600223602966E1E89
:10F2C00004961226059606001C3671188C46D1B29B
:10F2D0008D420CD91989049B93421AD123898B4200
:10F2E00024D100231DE01B8921898B4205D10123F4
:10F2F0000020019A137009B0F0BD07AA01331380F2
:10F3000051800023019A0398137007A9FFF7E0FECC
:10F31000F1E7059B029E5343F65A0131B1420AD1EF
:10F320006344C15D01320131C155D0E707AA013103
:10F3300011805380E5E707AB013E19805E80E0E76E
:10F340005A02000059020000020010B50E20002AE7
:10F3500007D000200124034B591D1860CC77186298
:10F36000DA6110BD383300200020034B5A1D1860AD
:10F37000D07718627047C04638330020F8B50700D0
:10F380000E25002816D00D4E063D731DDB7F002B89
:10F3900010D0FFF79FFE0025A8420BD13468052C42
:10F3A0000AD8A00030180422390004300134FEF7D6
:10F3B00035FC34602800F8BD0425FBE73833002015
:10F3C00070B504000E000E20002C24D0124906381F
:10F3D0004B1DDB7F002B1ED00B68002B1BD00F4D6D
:10F3E0000930635D002B16D10D4A0B62A652023A1A
:10F3F000A3540C4A0431A3540B4A2000A354042202
:10F40000FEF70CFC220001213000FFF75DFE002812
:10F4100001D10123635570BD383300205B02000029
:10F420005E0200005A02000059020000F0B506001A
:10F430000F0089B0002810D000290ED08E4B053364
:10F44000DB7F002B09D00B88322B00D16CE006D873
:10F45000112B00D106E1302B31D009B0F0BD332B98
:10F46000FBD18B880193854B019AC35A9342F4D107
:10F47000834BFD88C35C0293824BC15C059303916F
:10F48000002D00D1AAE006ABDC1D64230025029804
:10F4900003994343F3181B7901312570994200D138
:10F4A000DBE0059B3000F154019A2100FFF7F0FEEC
:10F4B000011E00D08FE02378002BCED0CFE06F4A22
:10F4C0008B88855A9D42C8D1CB88002B22D16424D9
:10F4D0006B4B0422C05C0E31444334192000FEF70C
:10F4E0009DFB390004221231A01DFEF797FB290075
:10F4F0003000FFF765FE011EAFD00022624BF254D0
:10F50000BA883000FFF7FEFD0322604B1A70BA88FC
:10F510005A80A2E72A0000213000FFF70DFE3000DC
:10F52000B988FFF775FE98E78B880193534B019AD2
:10F53000C35A934200D090E7CB88002B3DD1504B6B
:10F54000C55CF73BFF3B6B43C218157904920A7BFD
:10F550000521AA188A4200DCD1B21224F2181171D6
:10F560003A006C430A330E32E418029203933419C2
:10F57000049B1A79954210D31223013D5D43039BEE
:10F5800075195D19049B29891B89994215D2052A91
:10F5900013D03C4B0199F254AAE720000A220299A9
:10F5A000FEF73CFB00236381A381E3812382029B5E
:10F5B00001350A3302931234DAE70025314B30006B
:10F5C000F55406ABDC1D2100019AFFF761FE010036
:10F5D000A84200D16FE72C4BF55491E71221642427
:10F5E000BB89039804933B00414302980E33444384
:10F5F000049A954200D346E75888254A801808287F
:10F600000AD803F039F81B20050909090909250062
:10F610001A8808193018828208193018828A002A3C
:10F6200009D0C28A002A06D0028B002A03D0408B60
:10F63000002800D027E701350633D9E71A880819D2
:10F640003018C282E8E71A88081930180283E3E705
:10F650001A88081930184283DEE70123237001213C
:10F66000BA8859E7054B8A88C35A9A4200D0F4E613
:10F670000022054BC254F0E6383300205E02000041
:10F680005A020000590200005B02000060330020B3
:10F6900000D7FFFF73DF704774DF7047F7B59C46F4
:10F6A000050001910E20002D00D17EE0002A7CD0C3
:10F6B00000260121524C21706670211D89CA89C122
:10F6C00089CA89C109CA09C163466362089B2000CF
:10F6D000A3622700012338375B42072231002E3016
:10F6E000A385FEF79FF931003C223800FEF79AF916
:10F6F0002B782A003B70AB781032BB70EB78FB7034
:10F700006B787B702300483303CA03C32300103A8D
:10F71000403303CA03C323000832503303CA03C370
:10F720006A6A384BB24241D1AA6A002A4ED12A6A8B
:10F73000002A07D01A004C32A265296A48885080F6
:10F74000098811806A68002A00D0E26318002E49F7
:10F7500050300A68106018005730506018005E3052
:10F76000906018006530D06018006C30106118008F
:10F770007330506118007A30906120008133D3617A
:10F780008B68224A01991A60214A38305A60214A0E
:10F790009A60214ADA60214A1A61214A5A61214A53
:10F7A0009A61214ADA61FFF727FAFEBD2100743120
:10F7B000E1656A6AE3671088088090888880B042B3
:10F7C000B2D99168895D99550136F8E71A00190098
:10F7D00020322266A86A2C31996286889E8402882B
:10F7E0001A840022964206D82A002C321178220070
:10F7F000643211709BE78768BF5C57540132F1E7B0
:10F80000E83500206836002018280020F536002052
:10F810000537002015370020253700203537002018
:10F82000453700205537002065370020F0B5734C70
:10F8300005002678082787B0002E0AD06070684639
:10F8400002F0BEFB009F002F06D0012200276C4B68
:10F850001A72380007B0F0BD2000072239002E30A0
:10F86000FEF7E0F8674B62681A4202D06378012B1A
:10F8700005D0A379002B0AD06378022B07D1636AE5
:10F880005F4A002B14D001210820517298472100B3
:10F8900001232E315A5C002A03D10133072BF9D101
:10F8A0001600681E03283BD802F0E6FE04090F1379
:10F8B0005372ECE76379002B01D0002E0DD1A379B0
:10F8C000002B02D00225002E07D1E3790325002B5F
:10F8D00003D1257A681E8541AD00636A484E657084
:10F8E000002B1FD0033D012D1CD82279002A19D0EE
:10F8F000B27A002A16D101320720F27298471822F4
:10F9000000216846FEF78EF800236A46607813707F
:10F910001372042812D802F0AFFE45081B284900D4
:10F920000025DAE70023F372E9E722002E320123F3
:10F9300001926A4633731370002304936378002B9B
:10F9400054D1636A002B00D183E7307B984780E76E
:10F950000223337323002E336A460193012313706D
:10F9600023695382E3681382E8E76A466369138276
:10F97000A36953822379002B16D0B17A002913D1C1
:10F98000214B1A79187B02430ED06A46039320005C
:10F99000022338301372DB18C370FFF72DF90523EB
:10F9A0000028CBD13373C9E70323FBE76A46E36939
:10F9B0001382236A53822379002B15D0B17A002950
:10F9C00012D1114B1A79187B02430DD06A4603936A
:10F9D0002000022338301372DB18C370FFF70CF9D4
:10F9E00006230028DED0A9E70423DBE76846FFF7FB
:10F9F00051FE0028A5D007002BE7C046E8350020BF
:10FA0000E836002000FFFF0018280020038810B50A
:10FA1000112B0AD01B2B1AD0102B05D1837D012B63
:10FA200002D182880F4B9A8510BD00210E4A0D4CE1
:10FA300083889172A28D01209A42F5D1FFF7F6FEDC
:10FA40000028F1D0A36A002BEED09847ECE7037AA8
:10FA5000002BE9D1034C05216078013002F09AFFB8
:10FA6000C8B2EBE7E8350020E8360020023810B5D0
:10FA700001280FD8084B1A7A002A0BD00022074C15
:10FA80001A726078FFF7D2FE002803D0A36A002B19
:10FA900000D0984710BDC046E8360020E835002069
:10FAA000074B01005A7A082010B5002A07D000241D
:10FAB000044807222E305C72FEF7B0F8200010BD1B
:10FAC000E8360020E8350020F7B51D00154B0192FF
:10FAD000DA7A00900F000820002A0AD00024124E83
:10FAE000DC7231713573BC4204D10024AC420DD1BB
:10FAF0000020FEBD072132686143A3009858009B97
:10FB000007225918FEF78AF80134ECE7B268A3001F
:10FB10009858019B210110225918FEF77FF80134F3
:10FB2000E4E7C046E83600201828002070B5FFF74B
:10FB3000B3FD01220B4D0C4B28009A72062338307E
:10FB40000021C370FFF758F8041E08D16878FFF74A
:10FB50006DFE002803D0AB6A002B00D09847200030
:10FB600070BDC046E8350020E8360020A0DF7047B1
:10FB7000A2DF7047A6DF704763DF704710B5041E31
:10FB80000AD0002908D00B88112B06D0502B07D0A3
:10FB9000102B01D18B88A38210BD01235B42FAE7B1
:10FBA000CB88008A8A1D98420DD1508902280AD13B
:10FBB00012310800FFF788F9002802D00123A3754D
:10FBC000EAE7A075E8E7A0889842E5D1A369002B91
:10FBD000E2D02000528912319847DDE7F0B51027B6
:10FBE00095B006000D003A00514904A8FEF716F83A
:10FBF0000E24002E00D198E0002D00D195E00123C5
:10FC00005B42B3822B683100B361002304A8B37553
:10FC1000FFF7B2FF041E00D087E06A46337802A9DE
:10FC20009372012313811800B21CFFF79FFF041E7B
:10FC30007BD1010003226846FDF7F4FE69463D4A88
:10FC40008B780A80062202216D4693430B43AB70EA
:10FC50000DAD210092182800FDF7E4FE2B7803215A
:10FC60001F432F706F463378B981BB736F6101AF4B
:10FC70000A00380021006C60EC602C61AC61FDF77B
:10FC8000D1FE1F200321BB782A4A83430B43210066
:10FC90000BAC20003A80BB700822FDF7C3FE0123A5
:10FCA00003AC0A9308946B4614249C853300290006
:10FCB00070880C3308AA0997FFF75AFF041E34D145
:10FCC00001000C222800FDF7ADFE0C222B7802204B
:10FCD000934313436A462B703378210093739081CA
:10FCE000032238006C60EC602C616C61AC61FDF744
:10FCF00099FE1F200321BB780E4A83430B433A80B1
:10FD000021000822BB700BA8FDF78CFE01230A938B
:10FD10006B4614349C8503AA089229007088331D11
:10FD200008AA0997FFF724FF0400200015B0F0BDD2
:10FD3000EC3F020011110000F0B587B06B460400E3
:10FD40000E000E209D1DDA80002C1CD0A78A0F4BC0
:10FD500006389F4217D0A37D002B14D093B20138F0
:10FD6000142B10D80430052200216844FDF75AFEF8
:10FD70006A46A38938001381012302A905960495D8
:10FD80009372FFF7F7FE07B0F0BDC046FFFF00001B
:10FD900098DF704763DF7047F0B50C0089B005004D
:10FDA0001022002104A8FDF73DFE2378002B28D166
:10FDB000A188012925D1A0792A78904221D1122049
:10FDC000267A22007043001903901F0018001E00BD
:10FDD0000193029103998A4215D1002F01D004AA00
:10FDE000D681002803D0019904AA51819381EB6840
:10FDF000002B06D0628804A94A80012228000A70DC
:10FE0000984709B0F0BDD189022903D0032904D055
:10FE10001232DFE7D68A029FFAE7D38A029801936B
:10FE2000138BF5E730B587B004000D0010220F49A1
:10FE300002A8FDF7F3FE0E20002C15D0002D13D0E4
:10FE4000210002A8FFF7A6FF00280DD16A462378FB
:10FE5000937101239380023B63802B68A0802081F3
:10FE6000E36001A8FFF78AFA07B030BDFC3F02004B
:10FE70001FB5002820D000291ED04388154A934280
:10FE800002D08A889A4217D10A88112A15D0392AB5
:10FE900012D18388002B0FD08A899A420CD1C36873
:10FEA000002B09D002226C4622700A001232019205
:10FEB0000A8A6946227298471FBD8A889A42FBD1F6
:10FEC000C368002BF8D0032269460A70043A4280C6
:10FED000F1E7C046FFFF00001FB503000E20002B16
:10FEE00016D05A880B4906388A4211D0DB88002B7D
:10FEF0000ED06846012101800221C3808023FF319A
:10FF000081809B02039001A910000293FFF740FF3C
:10FF100005B000BDFFFF000030B503000C000E204F
:10FF200085B0002B13D00738142A10D85D880949F2
:10FF300001308D420BD001A9FA3008801B892800BE
:10FF40004B800023CA808B808C60FFF721FF05B0B7
:10FF500030BDC046FFFF000003000E20002B09D07B
:10FF6000101E598006D000205188D98011889980B0
:10FF700092881A817047C04649DF70474ADF704750
:10FF80004BDF704710B5012380248320064AE40527
:10FF90001360C0002258120C110019401A42F9D106
:10FFA000024B997010BDC0460C000040B8370020CD
:10FFB000094B70B51D0004000835002801D010332E
:10FFC0001D002B68002B05D01A6820005B682A6092
:10FFD0009847F6E770BDC046B837002010B502F06C
:10FFE000D7F8002802D0FFF7C9FF10BD01228020FA
:10FFF000064B07491A60074AC0054358134093420D
:020000022000DC
:10000000FBD00022044B5A70EFE7C04604000040CA
:100010000C04000001000100B8370020014B1878E3
:100020007047C046B837002010B5104C85202378A3
:10003000002B1AD16360A360E36023610C4B1A6844
:100040000123100018401A4202D1032100F062F986
:1000500002F09EF8002805D18022A3230121D205B9
:10006000DB00D15001230020237010BDB8370020E1
:1000700000E100E010B500F047F98022C223012121
:10008000D2059B004942D150FFF77CFFFFF7A6FF46
:100090000022014B1A7010BDB837002073B56946B5
:1000A0001B4C0500A378CE1DDAB2002B10D000281F
:1000B00002D043680120984700233000337001F0DC
:1000C0008FFDE3680133E360307801F0A7FD73BD75
:1000D0003000327001F084FD002D05D0226913003C
:1000E000002B10D12A602561E368002BE9D1094A71
:1000F00002211360C123053AFF3A9B00D15001222F
:10010000054B1A60DDE79D42EED01B68E8E7C0466C
:10011000B8370020040100400800004007B56A46D7
:100120000023D01DD37101F05BFD074BDA68013A63
:10013000DA60DB68002B01D1FFF724FF6B46D8792A
:1001400001F06CFD07BDC046B837002010B502F0C5
:100150001FF8002806D180228323D205DB00D05867
:10016000C003C00F10BD73B569461E4C050063780F
:10017000CE1DDAB2002B10D0002802D04368002038
:10018000984700233000337001F02AFD6368013383
:100190006360307801F042FD73BD3000327001F0D1
:1001A0001FFD002D05D0A2681300002B0BD12A6083
:1001B000A5606368002BE9D101F0EAFF002806D0B2
:1001C000FFF7DAFEE2E79D42F3D01B68EDE7C121BD
:1001D0000122054B89001860013BFF3B5A501A6011
:1001E000D4E7C046B83700200001004007B56A4692
:1001F0000023D01DD37101F0F3FC074B5A68013A7C
:100200005A605B68002B01D1FFF7E8FE6B46D87996
:1002100001F004FD07BDC046B837002007B501F066
:10022000B7FF002807D001A8FFF7AAFE0198431ED8
:100230009841C0B20EBD8022044BD205D058044B69
:100240001840044BC01843425841F2E70C04000028
:1002500001000100FFFFFEFF0F2070470F207047D5
:100260000F207047114B10B51A68002A0BD00020E0
:100270008021C222186001239200C9058B500C4ACC
:100280005370FFF795FE0B4B1A68002A0CD0002222
:100290001A608022C223022101209B00D205D15086
:1002A000034B9870FFF784FE10BDC046000100406C
:1002B000B83700200401004010B5002801D1FFF735
:1002C00077FE10BD13B56A460023D01DD37101F02F
:1002D00087FC084C2378002B01D1FFF7A5FEE368CB
:1002E0000133E3600123A3706B46D87901F096FCDB
:1002F00013BDC046B837002010B50321002000F020
:1003000009F8FFF70BFF10BD0122014BDA677047B8
:1003100004E100E030B5FF2503232C000340DB009F
:100320009C4089012940E4439940C2B2002814DA74
:100330000F231340083B0E489B089B001B18D869ED
:1003400004402143D9611F23C0211A401E3B934022
:10035000084A49005350136030BDC025054B800842
:100360008000C018AD0043591C4021434151EAE7C9
:1003700000ED00E000E100E0A0238000DB05C018F4
:10038000E023DB0010B5C258034C09042240C250E0
:10039000C2581143C15010BDFFFFFCFF0122054BA5
:1003A00081005242CA50032802D91B183C331A70EC
:1003B0007047C046CC37002070B5134D08202B0085
:1003C00044331C78002C1ED12A002300FF21203248
:1003D000D1540133202BFBD120000134E4B2FFF7CC
:1003E000DDFF082CF8D103210620FFF793FF002042
:1003F000064B80211860C123054A9B000906D15095
:10040000012344352B7070BDCC3700207C61004047
:1004100000600040034B44331878431E9841C0B23B
:100420007047C046CC370020F0B51F25244C030090
:10043000221801325557082001353BD18878002811
:1004400039D0002085006259013230D1E2180132E2
:10045000D07700221B4862512818A225ED0046598A
:10046000194F0A783E40C0271204BF023A40802745
:100470004C787F0324053C40F827465122437F01F6
:100480001C0246593C4022433243425101224878E3
:10049000A0219A40C905012810D1A120C0000A500E
:1004A0000322C133FF339B000020CA5002E0013019
:1004B0000428C7D1F0BDFE20D077E7E70348EEE778
:1004C000CC37002000600040FFE0ECFF0C0500008E
:1004D00070B50E4D04002E180136F07F032809D8A0
:1004E000FFF75CFF1F230021F356094A4533FF3312
:1004F0009B009950FF232D190135EB77A023022291
:10050000C134FF34A400DB05E25070BDCC370020BD
:10051000006000400123A021A1228340C905D20030
:100520008B5070470123A0218340024AC9058B509C
:100530007047C0460C050000A022074BD205D158D9
:100540000123834010B51C00A1208C430B400349BC
:10055000C0001450535010BD040500000C050000ED
:100560000A4B0B4A1B180133DB7F03215BB29B0054
:100570009B18A222D20010B506489C582043214364
:100580009850C046C046C046995010BDCC37002098
:1005900000600040031F0000A221074B074A1B1800
:1005A00003200133DB7FC9005BB29B009B185A58C4
:1005B00082435A507047C046CC370020006000404C
:1005C000044B1B181F2001331856034B8000C0B288
:1005D000C0187047CC37002000600040094B10B5B0
:1005E0001B18A2204C1EA1410133DB7F064A5BB2DF
:1005F0009B009B18C0001A58044C09052240114367
:10060000195010BDCC37002000600040FFFFEFFF05
:10061000054B064A1B180133DB7F5BB29B00DBB244
:100620009B1801221A607047CC3700200060004000
:100630000300F7B52D4801928446C0180130C47FED
:1006400008207F2C09D9CE780424002E01D0002464
:100650000438264F844201D10420FEBDA500EA598A
:10066000013231D1019AF8180130C4777A51002E45
:1006700002D13F193C373B708A78002A26D0A0204F
:10068000E027C0059A00FF001218D0590227B8438E
:10069000E027FF00D0510A78002E20D01449154CD5
:1006A0006D18A221C90068581B0220406850F8202C
:1006B00040010340C020120480026C5802401343E2
:1006C00023436B500020C8E70134C3E71A00A0277A
:1006D0004878C132FF3280009200FF05DAE76444B7
:1006E0003C34237892011A432270EBE7CC37002088
:1006F00000600040FFE0FCFFF8B51D4C23180133FB
:10070000DB7F5BB2032B15DDE3183C3319788909D5
:1007100003290BD1A022A223D205DB00D15801234B
:10072000C14019400231FFF727FEF8BD01394B1EC9
:100730009941F7E7DAB2032AF7D8A22601200D4A39
:100740009D00AF18F600BA590243BA511A000027AB
:100750004032084E920092B29751B942E5D02A59E0
:10076000BA42E2D09840C1239B00F050DDE7C0467A
:10077000CC370020006000401F220E4B10B51B1824
:1007800001339A56032A03DD0021FFF7F5FD10BD62
:10079000D3B2032BFBD8A224074B9100C918012325
:1007A000E400085998439340C2220851024992003C
:1007B0008B50ECE7CC3700200060004070B505009E
:1007C000FFF7DAFF0E4C63190133DB7F5BB2D8B25F
:1007D000032805D8002145330A4AFF339B0099506E
:1007E0002B00A0220221C133FF339B00D205995078
:1007F000FFF7D4FDFF2364190134E37770BDC046D1
:10080000CC3700200060004070B500240A4D2B005A
:1008100020331B579A1C09D12000FFF759FE0134E1
:10082000202CF3D1002344352B7070BD002BF6DB58
:100830002000FFF7C3FFF2E7CC370020A022A2235D
:10084000D205DB00D358C340012018407047084B45
:100850001B181F2001331856C3B2032B05D8403094
:10086000800080B2034BC0187047BE204000F9E7FB
:10087000CC37002000600040F0B50024C1250122E3
:10088000260087B04E4B4F484F490394AD001F6878
:10089000012F04D147593A4201D01E60144304335A
:1008A00052008B42F3D1494B1A68012A0AD1002227
:1008B0001A6080231B06A0221C43A223D205DB0062
:1008C000D3580393230718D0A22701260025FF0041
:1008D00026420ED03B4AAB009A18D059D1593C4A17
:1008E0009B58002B05D00322090CC0041140C00EF8
:1008F000984701357600042DEAD1002C5BDA0023FD
:100900000493013B00273E000593314B1A0040320F
:100910009457621C42D0E4B2C022250007209543C0
:100920002040BF3A8240E90805A8405C024235D029
:1009300058190130C07FA40940B28000C358019308
:10094000002B06D1032C29D104A8435C1343435444
:1009500001E0032CF8D02B00A020C133FF33C005E9
:100960009B001B5803A8415C9B039B0F0A420AD0C3
:10097000022B13D1032C0BD1210028000137FFF7E4
:10098000FBFCFFB204E0032B08D10221032CF4D0BE
:10099000019B002B02D02100280098470136042E2D
:1009A000B3D1002F07D0A022A223D205DB00D35859
:1009B000039A934201D107B0F0BD0393049BA1E7D2
:1009C0000061004000600040106100407C61004018
:1009D000CC3700201FB501236A461370034B1072F9
:1009E0000191684606CB904705B000BD1438002041
:1009F000F7B501921C22009006793D4B72439B187B
:100A0000DB7E0820002B72D1009B0A681B68501CFB
:100A10000CD00120A024A1279040E405FF00E05164
:100A200010000327C130FF30800007514868441C84
:100A300007D00400A0270025C134FF34A400FF051F
:100A4000E5518D692B4C1D510F7D4C7D2A4D3C434A
:100A50005C512A4C18512A481A50012F20D188681D
:100A6000421C07D00200A0240027C132FF329200AE
:100A7000E4051751CA68541C0CD00124A027A125F5
:100A80009440FF05ED007C5114000325C134FF3470
:100A9000A400E551A124E4001A51A222D2009850EA
:100AA0001C227243124C019DA01845600869105128
:100AB000002D0DD01A000020FC32097F10629064D6
:100AC000C1221048920098501B0B58B2FFF722FC2D
